:1007200047616D65206F7665722100596F7520777E
:10073000696E21000000000000005E000004060257
:100740007C287C00006CFE641C5C707C605C3C4817
:100750000402000000007C8200C6380000183C182B
:1007600008083E088040000008080800004000001B
:10077000C038060038443800004878406C544C00BB
:100780006C4C740010287C007C54740038545470F5
:1007900000047C046C546C001C543C0000004800B5
:1007A0000000C80000102844282828000044281011
:1007B00006520E0038746C78407C7840007C4C7493
:1007C00038444400007C4438007C5C44007C1C04B9
:1007D00038642420007C107C00447C448084FC0429
:1007E000007C7C44007C40407C7F7C00007C7C7CE6
:1007F00038444438007C141C386464B8007C0C3CD9
:100800004C54640004047C04007C407C043C603C48
:100810000C741C7C447C7C44044C704C447C4C0028
:100820000000FE82001CE0000082FE0000040204C2
:10083000808080800402000068587840007C4878FE
:100840007048480078487C0000705858487C4C003C
:1008500000F8D8D8007C087800487C400088FC006C
:10086000007C784800447C407878780000780878EC
:100870003048483000F8C87878C8F8004878480808
:1008800000586868087C4000007840780838403894
:10089000186818784878784888D838080068784800
:1008A0000010FE820000FF0082FE10000301020320
:1008B00000C00000808090B0808080800000000038
:1008C0000000000000000000000000200020A02028
:1008D00020C0000000000000000000C00000C000B8
:1008E000000000C000000000000000000000000048
:1008F00000000000000000000000000000000000F8
:1009000000000000000000000000000000000000E7
:1009100000000000000000000000000000000000D7
:1009200000000000000000000000000000C0A0ACBB
:1009300024DB0401160878C488F6080908000000C2
:100940006232121A0A0C0000000206040808F708B6
:10095000E815000808080C0004048479C2623D020E
:10096000020277E424341514F000000000000000B7
:100970000000000000000000000000000000000077
:100980000000000000000000000000000000000067
:100990000000000000000000000000000000000057
:1009A0000000000000000000000000000000000146
:1009B0000305000000020301010101010000000025
:1009C0000000000000000000000000000203010021
:1009D0000300000000000000030101000304040004
:1009E0000000000101010101010000000000000001
:1009F00000000000000000000000000000000000F7
:100A000000000000000000000000000000000000E6
:100A100000000000000000000000000000000000D6
:100A200000000000000000000000000000000000C6
:100A30000000000000000000181819FFFF19181826
:100A4000183819FFFF193818383819FFFF193838C6
:100A5000387819FFFF197838FFFFFFFFFFFFFFFF0E
:100A6000187E7EFFFF7E7E183C3D19FFFF193D3C3E
:100A70003C1D19FFFF191D3C0000007E7E00000098
:100A800018189CFFFF9C18180000050000000000CB
:100A90000000000000000000000000010100000054
:100AA000000500000000000000000100000100003F
:100AB0000000000000000000000001000001000034
:100AC0000000000000000000000100010100010022
:100AD0000000000000000000010001000001000112
:100AE0000000000000000000000001010101000002
:100AF00000000000000000000000010000010000F4
:100B000000000001010000000000000000000000E3
:100B100001010101010101010000000000000000CD
:100B200000000100000100000100020002000200BC
:100B300000020002000100020200010001000100A9
:100B4000000100010001000100000300000300009B
:100B50000003000303000300000000000000000089
:100B60000400040000040004000000050000000070
:080B7000000400000005040070
:101A2F00410004014200090000420002000542008B
:101A3F0000000042049B00004204A00000410497F4
:101A4F000441049D0042040B00004104980041042E
:021A5F009A00EB
:100EF400240FF58274043EF583EDFF3395E0FEE59F
:100F0400822FF582E5833EF583229004A4E0FCFF62
:100F14003395E0FEEF78032290040EE0FD90040D7B
:100F2400E0FF75F008A42417F582E43404F583E5A2
:100F3400822DF582E43583F583229004A5E0FDFF3C
:100F44003395E0FE222417F58274043EF5832224AF
:100F540007F58274043EF5832290040EE0FD9004AC
:100F64000DE0FF75F008A4240FF582E43404222474
:100F74000FF58274043EF583227D0590049EE0FF04
:100F840090049CE02FFF90049BE03400FE7C001250
:100F9400110DED229004A5E0FF3395E0FE22E582D9
:100FA4002DF582E5833CF58322EF3395E0FE7487CB
:100FB4002FF58274043EF5832235F0FEA3E075F02C
:100FC40080A4240BF582E5F0340022900002E0FEB8
:100FD400A3E0FF7C007DC81210FBEF243BFFEE343E
:100FE400F6FEE433FDEC33FCE47BFFFAF9F8021976
:100FF400A99004A5E0FCFF3395E0FE2275F008A457
:101004002417F582E43404F583E582229004A5E0F4
:10101400FD3395E0FC2274862FF58274043EF5833B
:10102400E06409229004A5E0FFD36480948722EF52
:10103400F0A3EDF0A3EBF02290040EE0FF90040D7A
:10104400E0222417F5827404222407F58274042212
:101054009004A5E004F0229004A6E075F008A4FF33
:10106400E92FFF22E0FDD364809487222FFFE4332D
:10107400FEE0FD229004A5E0FFFD3395E0FC227420
:10108400862DF58274043CF5832274882DF58274D0
:10109400043CF58322747F2FF58274043EF5832289
:1010A400E0FEA3E0FFC322900004F0121AB87BFF15
:0110B4002219
:030003008FA422A5
:101AB800E4FFE4FE75F080EF120FC5F583E5822E92
:0F1AC800120F36E4F00EEEB480EA0FEFB408E32D
:011AD70022EC
:101A620075A4B1E4FFEF44A0F5A4E4F5A4FE75F07B
:101A720080EF120FC5F583E5822E120F36E0F5A333
:0D1A82000EEEB480E90FEFB408DB75A4B0E0
:011A8F002234
:0C1670009004A4121033A3EAF0A3E9F0E8
:10167C009004A4E0131313541F9004ACF09004AB2B
:10168C00F09004AAE0FF9004A4E02F131313541F4E
:10169C00FF9004ABE0C39F50779004A5E09004AD9D
:1016AC00F09004A9E0FF9004A5E09004AD12107036
:1016BC00C39FEE6480F8748098504C9004ABE0FFAC
:1016CC00120FC2120F31C083C082E0FD9004ACE057
:1016DC00FEC3EF9E75F080A4FF9004A6E0FBA3E090
:1016EC00FAA3E02FF9EA35F0FA9004ADE07E002978
:1016FC00F9EE3AFA1210B5FFED4FD082D083F0908C
:10170C0004ADE004F0809A9004ABE004F002168D76
:01171C0022AA
:06171D009004AB12103332
:10172300D39420400CE0FF94805006EF24E0FF8028
:10173300027F009004ADEFF0E4A3F0E49004AFF077
:101743009004AFE0FFC3940450679004ACE09004AE
:10175300AE1210709004ABE02D131313541F120F2D
:10176300C2F583120F03C083C082E0FF9004AFE091
:10177300FE9004ADE075F004A42434F582E5F03462
:1017830007F583E5822E120F36E493FE9004AEE054
:10179300FDC374079DFD7401A805088002C333D8F7
:1017A300FC5E4FD082D083F09004AFE004F00217C8
:0F17B300439004AEE004F0E06408600302173EC8
:0117C2002204
:1019ED009004A6EFF0A3EBF0A3EAF0A3E9F0AC05A9
:1019FD00E4A3F09004A7E0FBA3E0FAA3E0F9A3E0D1
:101A0D00F5827583001210CEFB60169004A6E0FFE0
:101A1D00AD0412171D9004AAE004F074042CFC8090
:011A2D00D2E6
:011A2E002295
:101960007FB5120003121AB87BFF7A0879B0900491
:10197000A97480F0A37414F0E4FD7F1412167012A1
:101980001A62758911D2AFD2A9D2AB758CD9758A7A
:10199000C8D28C90049AE0B4010312123090000473
:0919A000E0B405EF12138B80EA9C
:03001B000218E4E4
:1018E400C0E0C0F0C083C082C0D075D000C000C0CA
:1018F40001C002C003C004C005C006C007900001B7
:10190400E004F07006900000E004F090049CE00411
:10191400F0700690049BE004F09004A1E004F070E1
:10192400069004A0E004F090040CE004F07006902B
:10193400040BE004F0120FCF8F8D120FCFAF038F83
:101944008BD007D006D005D004D003D002D001D06C
:0C19540000D0D0D082D083D0F0D0E032A0
:03000B00021A9046
:101A9000C0E0C083C082C0D0900498E004F0E0B4FD
:101AA0000207E4F090049A04F0758CD9758AC8D0C6
:081AB000D0D082D083D0E032D7
:10138B00E4FFE4FEEF120F67F583E5822E120F36B2
:10139B00E4F00EEEB408ED0FEFB411E6121AB890AC
:1013AB0000077401F0A37490F09004A2E4F0A3740E
:1013BB0064F09000057403F0A37420F0900499740A
:1013CB00C8F0900497E075F003A4240A90049EF0F3
:1013DB00E4A3F090040DF0A37402F012103F120F6F
:1013EB0067F583E5822F120F36740AF0FB7D02E45A
:1013FB00FF1217C3758DFD758B14D28E900004E010
:10140B006405600302149790049AE0B4010312126E
:10141B00309004A21210A490049CE09F90049BE0D7
:10142B009E400A120B78E490049BF0A3F090000509
:10143B001210A49004A1E09F9004A0E09E400A1219
:10144B00001EE49004A0F0A3F09000071210A490EB
:10145B000001E09F900000E09E400A12159DE49071
:10146B000000F0A3F0900499E0FFC390040CE09F00
:10147B007480F890040BE0648098400A121498E48E
:0C148B0090040BF0A3F0121A6202140788
:011497002232
:10123000AF9FEF24C470030212E824FE7003021370
:101240002E24E8605424F86003021378900004E030
:10125000FFB40103021336EF6405600302137890B4
:10126000040EE0FFD39400500302137890040DE0C5
:1012700075F008A4240EF582E43404F583E5822F8A
:10128000120F36E0600302135C120F5D120F311271
:10129000137990040EE014804B900004E0FFB40139
:1012A00003021336EF6405600302137890040EE026
:1012B000FFC39407400302137890040DE075F00813
:1012C000A42410F582E43404F583E5822F120F364E
:1012D000E0600302135C120F5D120F31121379905C
:1012E000040EE004F002136B900004E0FFB401026E
:1012F0008044EF6405600302137890040DE0FFD38F
:1013000094004074A3E0FEEF75F008A42407F58272
:10131000E43404F583E5822E120F36E06002803C4F
:10132000120F5D120F3112138014F0A3803D900054
:1013300004E0FFB401047405F022EF6405703990F5
:10134000040DE0FFC3940F502FA3E0FEEF12100036
:101350002E120F36E0FF600764096003021AD812EC
:101360000F5D120F3112138004F0A3120F60120FE1
:1013700031740AF0FB1217C322E4F0FB1217C322E8
:0B138000E4F0FB1217C390040DE02204
:10159D00120F1CE0B4010EEF120F26E4F0EF04FF62
:1015AD00E4FB02166C120F1CE0B4020FEF120F26B3
:1015BD007401F0EF04FF7B0102166C120F1CE0B4F6
:1015CD00030FEF120F267402F0EF04FF7B020216D9
:1015DD006C120F1CE0B4040FEF120F267403F0EF22
:1015ED0004FF7B0302166C12103C1210002F120F19
:1015FD0036E0FF64076005EF6408703C90049EE0E0
:10160D0014F0E07003021AEB90049EE0D394059061
:10161D00040EE0FD90040DE0FF75F008500D120F63
:10162D00297408F0EF04FF7B088034120F2974072A
:10163D00F0EF04FF7B07802712103CFE1210002FE5
:10164D00120F36E0FF64056019EF64066014900414
:10165D000EE0FDEE120F267409F0EE04FF7B091269
:03166D0017C3227E
:100B78009004A4740FF0E49004A5F09004A512105A
:100B8800684003020EE29004A4E0120F13C333CEB0
:100B980033CED8F9120EF4E064096003020ED9903E
:100BA80004A4120F11C333CE33CED8F9120F73C079
:100BB80083C0829004A5120F41D082D083120F0304
:100BC800E4F0AF04FB1217C39004A4E0FF640F60C5
:100BD80003020CD0EF120F14C333CE33CED8F91260
:100BE8000F49C083C082121010D082D083120FA286
:100BF800E0B401199004A4E0120F13C333CE33CE2E
:100C0800D8F9120F49120FA2E4F0020ED99004A4E9
:100C1800E0120F13C333CE33CED8F9120F49C08375
:100C2800C082121010D082D083120FA2E0B4021A30
:100C38009004A4E0120F13C333CE33CED8F9120FA9
:100C480049120FA27401F0020ED99004A4E0120F09
:100C580013C333CE33CED8F9120F49C083C08212E2
:100C68001010D082D083120FA2E0B4031A9004A40B
:100C7800E0120F13C333CE33CED8F9120F49120F37
:100C8800A27402F0020ED99004A4E0120F13C33329
:100C9800CE33CED8F9120F49C083C082121010D0BB
:100CA80082D083120FA2E064046003020ED990047C
:100CB800A4E0120F13C333CE33CED8F9120F491262
:100CC8000FA27403F0020ED99004A4120F11C333BB
:100CD800CE33CED8F9120F49C083C0829004A51232
:100CE8000F41D082D083120F03E0B4011BEC120F26
:100CF80013C333CE33CED8F9121046120EFAE4F0ED
:100D0800EC04FFE4FB020ED69004A4120F11C333C7
:100D1800CE33CED8F9120F49C083C0829004A512F1
:100D28000F41D082D083120F03E0B4021CEC120FE3
:100D380013C333CE33CED8F9121046120EFA74010B
:100D4800F0EC04FF7B01020ED69004A4120F11C32D
:100D580033CE33CED8F9120F49C083C0829004A590
:100D6800120F41D082D083120F03E0B4031CEC129F
:100D78000F13C333CE33CED8F9121046120EFA74BD
:100D880002F0EC04FF7B02020ED69004A4120F11AD
:100D9800C333CE33CED8F9120F49C083C082900432
:100DA800A5120F41D082D083120F03E0B4041CECCB
:100DB800120F13C333CE33CED8F9121046120EFADF
:100DC8007403F0EC04FF7B03020ED69004A4E01237
:100DD8000F13C333CE33CED8F9120F49C083C08264
:100DE8009004A5120F9BD082D083120F03E0FF64FA
:100DF800076008EF64086003020E8090049EE01408
:100E0800F0E070319004A4120F11C333CE33CED862
:100E1800F9120F49C083C0829004A5120F41D082F5
:100E2800D083120F03E4F0EC04FFE4FB1217C312A3
:100E38001AEB020ED990049EE0D39405502C90042E
:100E4800A4120F11C333CE33CED8F9120F49C08381
:100E5800C0829004A5120F41D082D083120F037470
:100E680008F0EC04FF7B08020ED69004A4E004FF0F
:100E7800A3E0FD7B07020ED69004A4E0120F13C373
:100E880033CE33CED8F9120F49C083C0829004A55F
:100E9800120F9BD082D083120F03E0FF64056031EC
:100EA800EF6406602C9004A4120F11C333CE33CE26
:100EB800D8F9120F49C083C0829004A5120F41D0FF
:100EC80082D083120F037409F0EC04FF7B09121718
:100ED800C39004A5E004F0020B839004A4E014F08E
:0B0EE800E0C3648094804003020B7E96
:010EF30022DC
:10001E00E49004A4F0E49004A5F09004A5121068F6
:10002E0040030204569004A4E0FF704AEF120F142E
:10003E00C333CE33CED8F9120EF4E0FF6401601351
:10004E00EF6402600EEF64036009EF64046004EF76
:10005E00B40523120F0EC333CE33CED8F9120F735D
:10006E00C083C082120F3ED082D083120F03E4F001
:10007E00AF04FB02044D9004A4E0FD120F13C33332
:10008E00CE33CED8F9120F73C083C082120FF5D0C3
:10009E0082D083120F03E064016003020150ED125F
:1000AE000F13C333CE33CED8F9120F73EC120EFEEC
:1000BE00E4F0ED641060031206F1120F0EC333CE9E
:1000CE0033CED8F9120F53C083C082120F3ED082A6
:1000DE00D083120F03E0B4091BEC120F13C333CEFF
:1000EE0033CED8F912104D120EFAE4F0EC14FFE4F0
:1000FE00FB02014D9004A4E0120F13C333CE33CE96
:10010E00D8F9120F53C083C082120F98D082D083B9
:10011E00120F03E0B40A05121AD88026120F0EC36E
:10012E0033CE33CED8F9120F53C083C082120F3E96
:10013E00D082D083120F037401F0EC14FF7B0112F6
:10014E0017C39004A4E0FD120F13C333CE33CED8E1
:10015E00F9120F73C083C082120FF5D082D08312B2
:10016E000F03E06402600302021DED120F13C3338E
:10017E00CE33CED8F9120F73EC120EFEE4F0ED640E
:10018E001060031206F1120F0EC333CE33CED8F920
:10019E00120F53C083C082120F3ED082D083120F33
:1001AE0003E0B4091CEC120F13C333CE33CED8F9CF
:1001BE0012104D120EFA7401F0EC14FF7B010202C4
:1001CE001A9004A4E0120F13C333CE33CED8F91213
:1001DE000F53C083C082120F98D082D083120F03A8
:1001EE00E0B40A05121AD88026120F0EC333CE338E
:1001FE00CED8F9120F53C083C082120F3ED082D0D8
:10020E0083120F037402F0EC14FF7B021217C390DB
:10021E0004A4E0FD120F13C333CE33CED8F9120F60
:10022E0073C083C082120FF5D082D083120F03E009
:10023E00640360030202EAED120F13C333CE33CE12
:10024E00D8F9120F73EC120EFEE4F0ED6410600399
:10025E00120712120F0EC333CE33CED8F9120F532C
:10026E00C083C082120F3ED082D083120F03E0B43F
:10027E00091CEC120F13C333CE33CED8F912104D26
:10028E00120EFA7402F0EC14FF7B020202E79004E5
:10029E00A4E0120F13C333CE33CED8F9120F53C0CE
:1002AE0083C082120F98D082D083120F03E0B40A5B
:1002BE0005121AD88026120F0EC333CE33CED8F9BC
:1002CE00120F53C083C082120F3ED082D083120F02
:1002DE00037403F0EC14FF7B031217C39004A4E025
:1002EE00FD120F13C333CE33CED8F9120F73C08362
:1002FE00C082120FF5D082D083120F03E064046027
:10030E00030203B7ED120F13C333CE33CED8F91257
:10031E000F73EC120EFEE4F0ED6410600312071280
:10032E00120F0EC333CE33CED8F9120F53C083C083
:10033E0082120F3ED082D083120F03E0B4091CEC60
:10034E00120F13C333CE33CED8F912104D120EFA4C
:10035E007403F0EC14FF7B030203B49004A4E012C8
:10036E000F13C333CE33CED8F9120F53C083C082CE
:10037E00120F98D082D083120F03E0B40A05121A1E
:10038E00D88026120F0EC333CE33CED8F9120F53A8
:10039E00C083C082120F3ED082D083120F0374042A
:1003AE00F0EC14FF7B041217C39004A4E0FD120FAF
:1003BE0013C333CE33CED8F9120F73C083C082125B
:1003CE000FF5D082D083120F03E064057074ED1226
:1003DE000F13C333CE33CED8F9120F73EC120EFEB9
:1003EE00E4F0ED6410600D9004A4E0FFA3E0FDE4E2
:1003FE00FB1217C39004A4E0120F13C333CE33CEF7
:10040E00D8F9120F53C083C082120F98D082D083B6
:10041E00120F03E0B40A05121AD88026120F0EC36B
:10042E0033CE33CED8F9120F53C083C082120F3E93
:10043E00D082D083120F037405F0EC14FF7B0512EB
:10044E0017C31210540200289004A4E004F0E0D365
:10045E0064809490500302002390049FE0C3941E86
:10046E005037E49004A5F0121028502DEF3395E08C
:10047E00FE90049FE075F008A42488F582E4340A07
:10048E00F583120F03E493FD748F2FF58274043EEF
:10049E00F583EDF012105480CE90049FE0FBB42053
:1004AE001C90049BE0FEA3E0FF7C007D0712110D63
:1004BE0074872DF58274043CF5837407F0EBC394B6
:1004CE0027500690049FE004F0E49004A5F012106B
:1004DE00284003020665120FADE0640760030205B3
:1004EE0082120F7D4C703B9004A5E0701990048829
:1004FE00E064097003020665120F3E1206DE9004D8
:10050E008874070205BC120F9812101A70030206A7
:10051E00651206C71210781210837407F0EF1402DA
:10052E00057C120F7D64014C60030206659004A5E4
:10053E00E06407701990048DE0640970030206658B
:10054E00120F3E1206DE90048D740702062B120F58
:10055E009874882FF58274041210217003020665B8
:10056E001206C712107812108E7407F0EF04FD7B7E
:10057E00070206589004A5E0FBFF120FAEE06408D8
:10058E00600302065F7D03120F7F4C704EEB7025E9
:10059E00900488E064097003020665120F3E120F84
:1005AE00B2E4F0FB7F0F1217C39004887408F0FBBF
:1005BE007D01020658120F9812101A70030206657A
:1005CE009004A5E0FD2487120FB51206FF121083CA
:1005DE007408F0EF14FD7B0802065890049EE0FFAD
:1005EE0090049CE02FFF90049BE03400FE7C007D85
:1005FE000312110DED64014C705D9004A5E06407CB
:10060E00702190048DE06409604D120F3E120FB2FE
:10061E00E4F0FB7F0F1217C390048D7408F0FB7D7E
:10062E00068027120F9874882FF5827404121021F9
:10063E0060259004A5E0FD2487120FB51206FF1267
:10064E00108E7408F0EF04FD7B087F0F1217C38025
:10065E00061210540204DC90049FE0642770599037
:10066E000497E01313543FFFC374079FFF90049D3C
:10067E00E0FE04F0EF6E70409004A5F012102850CA
:10068E0037120FADE0FF64076005EF6408702412A7
:10069E000F98121099E0B40A05121AD8800F120F93
:1006AE003E1210997406F0FB7F0E1217C3E49004ED
:0806BE009DF02212105480C4CB
:1006C600229004A5E0FD2487F58274043EF583E4B8
:1006D600F0FB7F0F1217C32274872FF58274043E36
:1006E600F583E4F0FB7F0F1217C3229004A4E0FF0A
:1006F600A3E0FDE4FB1217C322E4F0FB7F0F121701
:10070600C39004A5E0FFFD3395E0FC229004A4E02D
:0A071600FFA3E0FDE4FB1217C3226D
:10149800E49004A4F0E49004A5F09004A512106868
:1014A800400302158B9004A4E0FF703BEF120F1469
:1014B800C333CE33CED8F9120EF4E0B40629900423
:1014C800A4120F11C333CE33CED8F9120F73C083D1
:1014D800C0829004A5120F41D082D083120F03E47A
:1014E800F0AF04FB02157F9004A4120F11C333CE92
:1014F80033CED8F9120F73C083C0829004A5120F9F
:1015080041D082D083120F03E06406706DEC120F95
:1015180013C333CE33CED8F9120EF4E4F0AF04FB84
:101528001217C39004A4E0120F13C333CE33CED8DE
:10153800F9120F53C083C0829004A5120F9BD0826A
:10154800D083120F03E0B40A05121AD8802C900435
:10155800A4120F11C333CE33CED8F9120F53C08360
:10156800C0829004A5120F41D082D083120F037459
:1015780006F0EC14FF7B061217C39004A5E004F0F4
:101588000214A29004A4E004F0E0D36480948E5086
:041598000302149D99
:01159C00222C
:101AD80074061210AB7A0779207D207F201219ED49
:031AE800021A627D
:101AEB0074071210AB7A07792B7D207F201219ED2A
:031AFB00021A626A
:0617C3009004A612103391
:1017C900E4F99004A8E070137C0012105BEC120F8E
:0B17D900BDF583120F03E4F002184E70
:1017E400E49004A9F0FD9004A8E075F008A4243066
:1017F400F582E4340A120F31E493FB7A00C37407D0
:1018040099FF74017E00A807088005C333CE33CE48
:10181400D8F9FFEE5AFEEF5B4E60159004A9E0FF85
:101824007401A805088002C333D8FC4F9004A9F0C2
:101834000DEDB408B19004A9E0FD7A0012105BEA42
:0A184400120FBDF583120F03EDF043
:09184E0009E9640860030217CBEC
:01185700226E
:030000000218588B
:0C185800787FE4F6D8FD75810702189F28
:1010B500BB010689828A83E0225002E722BBFE0239
:0910C500E32289828A83E493226C
:1010CE00BB010CE58229F582E5833AF583E02250D7
:1010DE0006E92582F8E622BBFE06E92582F8E22221
:0D10EE00E58229F582E5833AF583E493223B
:1010FB00EF8DF0A4A8F0CF8CF0A428CE8DF0A42E09
:02110B00FE22C2
:10110D00BC000BBE0029EF8DF084FFADF022E4CCC6
:10111D00F875F008EF2FFFEE33FEEC33FCEE9DEC8F
:10112D00984005FCEE9DFE0FD5F0E9E4CEFD22EDD5
:10113D00F8F5F0EE8420D21CFEADF075F008EF2F1F
:10114D00FFED33FD4007985006D5F0F222C398FD10
:05115D000FD5F0EA22AD
:1019A900C2D5E830E70FB2D5E4C39BFBE49AFAE469
:1019B90099F9E498F8EC30E717B2D51219DF12114A
:1019C9009EE4C39BFBE49AFAE499F9E498F880034E
:1019D90012119E30D50DE4C39FFFE49EFEE49DFDE8
:0419E900E49CFC225C
:10186400021960E493A3F8E493A34003F68001F221
:1018740008DFF48029E493A3F85407240CC8C33385
:10188400C4540F4420C8834004F456800146F6DF54
:10189400E4800B0102040810204080901A2FE47E9B
:1018A400019360BCA3FF543F30E509541FFEE49349
:1018B400A360010ECF54C025E060A840B8E493A310
:1018C400FAE493A3F8E493A3C8C582C8CAC583CA3B
:1018D400F0A3C8C582C8CAC583CADFE9DEE780BEF3
:011A61000084
:1011620075F008758200EF2FFFEE33FECD33CDCC44
:1011720033CCC58233C5829BED9AEC99E5829840C7
:101182000CF582EE9BFEED9AFDEC99FC0FD5F0D6A4
:10119200E4CEFBE4CDFAE4CCF9A88222B800C1B9CE
:1011A2000059BA002DEC8BF084CFCECDFCE5F0CB0C
:1011B200F97818EF2FFFEE33FEED33FDEC33FCEB45
:1011C20033FB10D703994004EB99FB0FD8E5E4F900
:1011D200FA227818EF2FFFEE33FEED33FDEC33FCED
:1011E200C933C910D7059BE99A4007EC9BFCE99AE1
:1011F200F90FD8E0E4C9FAE4CCFB2275F010EF2F26
:10120200FFEE33FEED33FDCC33CCC833C810D70725
:101212009BEC9AE899400AED9BFDEC9AFCE899F860
:0E1222000FD5F0DAE4CDFBE4CCFAE4C8F922F3
:00000001FF
